:100000000C9462000C948A000C948A000C948A0070
:100010000C948A000C948A000C948A000C948A0038
:100020000C948A000C948A000C948A000C948A0028
:100030000C948A000C948A000C948A000C948A0018
:100040000C947F030C948A000C944D030C942703AA
:100050000C948A000C948A000C948A000C948A00F8
:100060000C948A000C948A000000000024002700F1
:100070002A0000000000250028002B0000000000DE
:1000800023002600290004040404040404040202DA
:100090000202020203030303030301020408102007
:1000A0004080010204081020010204081020000012
:1000B0000008000201000003040700000000000027
:1000C00000000E0411241FBECFEFD8E0DEBFCDBF6D
:1000D00011E0A0E0B1E0E8E1F1E102C005900D928D
:1000E000A232B107D9F721E0A2E2B1E001C01D922E
:1000F000A63DB207E1F710E0C2E6D0E004C02197C8
:10010000FE010E948408C136D107C9F70E94750418
:100110000C948A080C940000AF92BF92CF92DF92A9
:10012000EF92FF920F931F93CF93DF936C017B01AC
:100130008B01040F151FEB015E01AE18BF08C0173D
:10014000D10759F06991D601ED91FC910190F081B0
:10015000E02DC6010995892B79F7C501DF91CF9173
:100160001F910F91FF90EF90DF90CF90BF90AF90D5
:100170000895FC01538D448D252F30E0842F90E0AD
:10018000821B930B541710F0CF9608950197089592
:10019000FC01918D828D981761F0A28DAE0FBF2F5B
:1001A000B11D5D968C91928D9F5F9F73928F90E0B1
:1001B00008958FEF9FEF0895FC01918D828D981720
:1001C00031F0828DE80FF11D858D90E008958FEF5D
:1001D0009FEF0895FC01918D228D892F90E0805C26
:1001E0009F4F821B91098F73992708958DE291E0AB
:1001F0000E94EA0021E0892B09F420E0822F089573
:1002000080E090E0892B29F00E94F60081110C9487
:1002100000000895FC01A48DA80FB92FB11DA35AA9
:10022000BF4F2C91848D90E001968F739927848F16
:10023000A689B7892C93A089B1898C918370806439
:100240008C93938D848D981306C00288F389E02DDA
:1002500080818F7D80830895EF92FF920F931F938B
:10026000CF93DF93EC0181E0888F9B8D8C8D981369
:100270001AC0E889F989808185FF15C09FB7F89475
:10028000EE89FF896083E889F989808183708064C1
:1002900080839FBF81E090E0DF91CF911F910F910C
:1002A000FF90EF900895F62E0B8D10E00F5F1F4F1B
:1002B0000F731127E02E8C8D8E110CC00FB607FC2A
:1002C000FACFE889F989808185FFF5CFCE010E94B8
:1002D0000A01F1CFEB8DEC0FFD2FF11DE35AFF4F1B
:1002E000F0829FB7F8940B8FEA89FB898081806246
:1002F000CFCFCF93DF93EC01888D8823B9F0AA8903
:10030000BB89E889F9898C9185FD03C0808186FDD0
:100310000DC00FB607FCF7CF8C9185FFF2CF80811F
:1003200085FFEDCFCE010E940A01E9CFDF91CF9189
:100330000895833081F028F4813099F08230A9F05B
:1003400008958730A9F08830C9F08430B1F48091E5
:1003500080008F7D03C0809180008F778093800024
:10036000089584B58F7784BD089584B58F7DFBCFC4
:100370008091B0008F778093B00008958091B00095
:100380008F7DF9CF1F93CF93DF93282F30E0F901B2
:10039000E255FF4F8491F901E656FF4FD491F901E0
:1003A000EA57FF4FC491CC23A9F0162F81110E9468
:1003B0009901EC2FF0E0EE0FFF1FEE58FF4FA591D3
:1003C000B4918FB7F894EC91111108C0D095DE2349
:1003D000DC938FBFDF91CF911F910895DE2BF8CF73
:1003E000CF93DF9390E0FC01E656FF4F24918A57AC
:1003F0009F4FFC0184918823D1F090E0880F991FD2
:10040000FC01E859FF4FA591B491FC01EE58FF4F54
:10041000C591D49161110EC09FB7F8948C91E22FD1
:10042000E0958E238C932881E223E8839FBFDF91A0
:10043000CF9108958FB7F894EC91E22BEC938FBF96
:10044000F6CF1F93CF93DF93182FEB0161E00E944B
:10045000F001209739F460E0812FDF91CF911F9157
:100460000C94C201CF3FD10511F461E0F5CFE12F2B
:10047000F0E0E255FF4FE491E33031F140F4E13038
:10048000B1F0E230E1F0C038D1057CF7E4CFE730DD
:1004900029F1E83059F1E430B1F7809180008062B1
:1004A00080938000D0938B00C0938A0004C084B5F1
:1004B000806884BDC7BDDF91CF911F91089584B539
:1004C000806284BDC8BDF7CF809180008068809332
:1004D0008000D0938900C0938800EDCF8091B00058
:1004E00080688093B000C093B300E5CF8091B000E6
:1004F00080628093B000C093B400DDCF3FB7F89422
:100500008091270190912801A0912901B0912A01A1
:1005100026B5A89B05C02F3F19F00196A11DB11D5E
:100520003FBFBA2FA92F982F8827BC01CD01620F9A
:10053000711D811D911D42E0660F771F881F991F55
:100540004A95D1F708958F929F92AF92BF92CF9222
:10055000DF92EF92FF926B017C010E947E024B01C1
:100560005C01C114D104E104F104B9F00E947E02DF
:10057000681979098A099B09683E734081059105CC
:1005800080F321E0C21AD108E108F10888EE880E54
:1005900083E0981EA11CB11CE4CFFF90EF90DF9088
:1005A000CF90BF90AF909F908F900895FC010190E5
:1005B0000020E9F73197AF01481B590BBC018DE2D0
:1005C00091E00C948C008F929F92AF92BF920F9308
:1005D0001F93CF93DF93CDB7DEB7A1970FB6F894F3
:1005E000DEBF0FBECDBF19A2423008F44AE08E0133
:1005F0000F5D1F4F842E912CB12CA12CA5019401CD
:100600000E946208E62FB901CA01EA30F4F4E05D05
:10061000D801EE938D01232B242B252B79F790E025
:1006200080E0109719F0CD010E94D602A1960FB676
:10063000F894DEBF0FBECDBFDF91CF911F910F9118
:10064000BF90AF909F908F900895E95CE1CF1F928B
:100650000F920FB60F9211242F933F934F935F93F6
:100660006F937F938F939F93AF93BF93EF93FF937A
:100670008DE291E00E940A01FF91EF91BF91AF914D
:100680009F918F917F916F915F914F913F912F91AA
:100690000F900FBE0F901F9018951F920F920FB6DC
:1006A0000F9211242F938F939F93EF93FF93E091D9
:1006B0003D01F0913E018081E0914301F0914401C0
:1006C00082FD1BC09081809146018F5F8F732091C6
:1006D0004701821741F0E0914601F0E0E35DFE4FF3
:1006E000958F80934601FF91EF919F918F912F916C
:1006F0000F900FBE0F901F9018958081F4CF1F921E
:100700000F920FB60F9211242F933F938F939F93C5
:10071000AF93BF938091230190912401A091250173
:10072000B09126013091220123E0230F2D3758F597
:100730000196A11DB11D2093220180932301909366
:100740002401A0932501B093260180912701909167
:100750002801A0912901B0912A010196A11DB11D86
:100760008093270190932801A0932901B0932A0137
:10077000BF91AF919F918F913F912F910F900FBE9D
:100780000F901F90189526E8230F0296A11DB11D0A
:10079000D2CFCF92DF92EF92FF920F931F93E82F69
:1007A000F92F05C0015011092109310961F190812A
:1007B00096239417B9F305C0015011092109310995
:1007C00011F1908196239413F7CFC12CD12CE12CF9
:1007D000F12C0AC08FEFC81AD80AE80AF80A0C15DB
:1007E0001D052E053F0579F080818623841791F33E
:1007F0006C2D7D2D8E2D9F2D1F910F91FF90EF90D1
:10080000DF90CF90089560E070E080E090E01F916D
:100810000F91FF90EF90DF90CF900895CF93DF93EB
:10082000EDE2F1E01382128288EE93E0A0E0B0E006
:1008300084839583A683B78384E091E0918380834A
:1008400085EC90E09587848784EC90E09787868795
:1008500080EC90E0918B808B81EC90E0938B828B8D
:1008600082EC90E0958B848B86EC90E0978B868B66
:10087000118E128E138E148EC0EDD1E083E190E0C4
:100880009983888384E190E09B838A8388EC90E05D
:100890009D838C8361E083E10E94F00161E08A81A5
:1008A0000E94F00180E090E0A0E2B1E48093CC01EE
:1008B0009093CD01A093CE01B093CF0161E08EE083
:1008C0000E94F00160E08FE00E94F00160E08EE0A5
:1008D0000E94C20188E090E09093CB018093CA010E
:1008E00060E0DF91CF910C94F001789484B5826040
:1008F00084BD84B5816084BD85B5826085BD85B5C4
:10090000816085BD80916E00816080936E00109241
:1009100081008091810082608093810080918100BC
:10092000816080938100809180008160809380004D
:100930008091B10084608093B1008091B0008160AB
:100940008093B00080917A00846080937A008091D7
:100950007A00826080937A0080917A00816080932F
:100960007A0080917A00806880937A001092C100AA
:10097000E0913D01F0913E0182E08083E0913901F8
:10098000F0913A011082E0913B01F0913C018FEC33
:10099000808310924501E0914101F091420186E08F
:1009A0008083E0913F01F0914001808180618083EC
:1009B000E0913F01F0914001808188608083E09167
:1009C0003F01F0914001808180688083E0913F0188
:1009D000F091400180818F7D8083C3E2D0E020E0F0
:1009E000222E20E0322E80912C018111D6C061E0B0
:1009F0008EE00E94C201CE010197F1F760E08EE027
:100A00000E94C201E9EAF0E06491E5E9F0E0849136
:100A1000E82FF0E0EE0FFF1FE458FF4F859194910F
:100A200000E412E42FE030E0462F0E94C903611574
:100A300071058105910529F06F5F7F4F8F4F9F4FA3
:100A40009F700E94390720E030E048E652E40E949F
:100A500098066B017C01AC019B010E945D08882314
:100A600001F182E191E00E94D6028EE191E00E94C4
:100A7000D6022091CC013091CD014091CE01509110
:100A8000CF01C701B6010E949306881F8827881FDF
:100A900080932C0162E370E080E090E00E94A3026A
:100AA000B9C02FEF3FEF4FE75FE7C701B6010E94E4
:100AB0005D0881110DC02FEF3FEF4FE75FE7C701E2
:100AC000B6010E94930618161CF486E191E0CBCF84
:100AD0002FEF3FEF4FE75FE4C701B6010E94EB073E
:100AE00018161CF48AE191E0BECF2FEF3FEF4FE7DD
:100AF0005FECC701B6010E94930687FDF3CF2AE0A1
:100B000037ED43EA5BE3C701B6010E9427062B01DC
:100B10003C010E940A074B015C010E9439079B01BE
:100B2000AC01C301B2010E9426062B013C014AE040
:100B3000C501B4010E94E3026EE28DE291E00E94E1
:100B40002C0120E030E040E251E4C301B2010E94F8
:100B5000F0072B013C010E940A074B01B12CA12C8C
:100B60004AE0C501B4010E94E302C501B4010E943C
:100B700039079B01AC01C301B2010E94260620E0A7
:100B800030E040E251E40E94F0070E940A0790E042
:100B900080E04AE00E94E30268CF8091D00190910A
:100BA0002B01911143C06091D4017091D5010E9435
:100BB000210260E08091D2010E94C20162E370E0F4
:100BC00080E090E00E94A3022091CA013091CB0105
:100BD0003327F901E255FF4F8491F901E656FF4FA3
:100BE000F490F901EA57FF4FE490EE2079F081117B
:100BF0000E949901EE2DF0E0EE0FFF1FE458FF4F29
:100C0000A591B491EC91FE2281E009F480E081701D
:100C100080932B012114310409F4E5CE0E94F600E3
:100C2000882309F4E0CE0E940000DDCE60E00E943F
:100C3000C2016091D4017091D5018091D2010E94CE
:100C4000210264EF71E080E090E028CF5058BB278C
:100C5000AA270E943E060C94B1070E94A30738F011
:100C60000E94AA0720F039F49F3F19F426F40C944F
:100C7000A0070EF4E095E7FB0C949A07E92F0E9479
:100C8000C20758F3BA17620773078407950720F065
:100C900079F4A6F50C94E4070EF4E0950B2EBA2F28
:100CA000A02D0B01B90190010C01CA01A001112472
:100CB000FF27591B99F0593F50F4503E68F11A161E
:100CC000F040A22F232F342F4427585FF3CF4695AF
:100CD00037952795A795F0405395C9F77EF41F16D1
:100CE000BA0B620B730B840BBAF09150A1F0FF0F9B
:100CF000BB1F661F771F881FC2F70EC0BA0F621F87
:100D0000731F841F48F4879577956795B795F79576
:100D10009E3F08F0B0CF9395880F08F09927EE0F0B
:100D20009795879508950E94760708F481E00895C5
:100D30000E94AC060C94B1070E94AA0758F00E94CA
:100D4000A30740F029F45F3F29F00C949A07511152
:100D50000C94E5070C94A0070E94C20768F399233E
:100D6000B1F3552391F3951B550BBB27AA276217A7
:100D70007307840738F09F5F5F4F220F331F441FB4
:100D8000AA1FA9F335D00E2E3AF0E0E832D09150E8
:100D90005040E695001CCAF72BD0FE2F29D0660FD5
:100DA000771F881FBB1F261737074807AB07B0E818
:100DB00009F0BB0B802DBF01FF2793585F4F3AF01E
:100DC0009E3F510578F00C949A070C94E5075F3F1D
:100DD000E4F3983ED4F3869577956795B795F795A4
:100DE0009F5FC9F7880F911D9695879597F908958C
:100DF000E1E0660F771F881FBB1F62177307840728
:100E0000BA0720F0621B730B840BBA0BEE1F88F736
:100E1000E09508950E94CA0788F09F5798F0B92F6F
:100E20009927B751B0F0E1F0660F771F881F991F1F
:100E30001AF0BA95C9F714C0B13091F00E94E407D6
:100E4000B1E008950C94E407672F782F8827B85FE6
:100E500039F0B93FCCF3869577956795B395D9F777
:100E60003EF490958095709561957F4F8F4F9F4F81
:100E70000895E89409C097FB3EF49095809570958D
:100E800061957F4F8F4F9F4F9923A9F0F92F96E9D6
:100E9000BB279395F695879577956795B795F1114B
:100EA000F8CFFAF4BB0F11F460FF1BC06F5F7F4FE8
:100EB0008F4F9F4F16C0882311F096E911C07723FA
:100EC00021F09EE8872F762F05C0662371F096E803
:100ED000862F70E060E02AF09A95660F771F881FD2
:100EE000DAF7880F9695879597F90895990F000876
:100EF000550FAA0BE0E8FEEF16161706E807F907EC
:100F0000C0F012161306E407F50798F0621B730B86
:100F1000840B950B39F40A2661F0232B242B252B07
:100F200021F408950A2609F4A140A6958FEF811DAA
:100F3000811D089597F99F6780E870E060E008954B
:100F40009FEF80EC089500240A94161617061806E1
:100F50000906089500240A941216130614060506BD
:100F60000895092E0394000C11F4882352F0BB0F4E
:100F700040F4BF2B11F460FF04C06F5F7F4F8F4FB1
:100F80009F4F089557FD9058440F551F59F05F3FEC
:100F900071F04795880F97FB991F61F09F3F79F09B
:100FA00087950895121613061406551FF2CF46951D
:100FB000F1DF08C0161617061806991FF1CF86959F
:100FC0007105610508940895E894BB276627772783
:100FD000CB0197F908950E94760708F48FEF0895E2
:100FE0000E9403080C94B1070E94A30738F00E94E6
:100FF000AA0720F0952311F00C949A070C94A007EF
:1010000011240C94E5070E94C20770F3959FC1F369
:10101000950F50E0551F629FF001729FBB27F00DA6
:10102000B11D639FAA27F00DB11DAA1F649F6627FB
:10103000B00DA11D661F829F2227B00DA11D621F4A
:10104000739FB00DA11D621F839FA00D611D221F04
:10105000749F3327A00D611D231F849F600D211DE8
:10106000822F762F6A2F11249F5750409AF0F1F06B
:1010700088234AF0EE0FFF1FBB1F661F771F881FD4
:1010800091505040A9F79E3F510580F00C949A076B
:101090000C94E5075F3FE4F3983ED4F3869577958B
:1010A0006795B795F795E7959F5FC1F7FE2B880F7A
:1010B000911D9695879597F908950E947607880B5C
:1010C000990B0895A1E21A2EAA1BBB1BFD010DC0AE
:1010D000AA1FBB1FEE1FFF1FA217B307E407F507E8
:1010E00020F0A21BB30BE40BF50B661F771F881FC4
:1010F000991F1A9469F760957095809590959B015A
:10110000AC01BD01CF010895EE0FFF1F0590F491D2
:08111000E02D0994F894FFCFD3
:10111800000000002C018C00B9007901EA00C80029
:10112800DC006E616E00696E66006F7666000D0AFF
:021138000000B5
:00000001FF
